{
  "contractName": "covidVaccineRegister",
  "abi": [
    {
      "constant": true,
      "inputs": [
        {
          "internalType": "uint256",
          "name": "",
          "type": "uint256"
        }
      ],
      "name": "vaccinationRecords",
      "outputs": [
        {
          "internalType": "string",
          "name": "name",
          "type": "string"
        },
        {
          "internalType": "string",
          "name": "surname",
          "type": "string"
        },
        {
          "internalType": "string",
          "name": "vaccinationDate",
          "type": "string"
        },
        {
          "internalType": "string",
          "name": "vaccineName",
          "type": "string"
        },
        {
          "internalType": "string",
          "name": "vaccinationPlace",
          "type": "string"
        },
        {
          "internalType": "address",
          "name": "added_by",
          "type": "address"
        }
      ],
      "payable": false,
      "stateMutability": "view",
      "type": "function"
    },
    {
      "constant": false,
      "inputs": [
        {
          "internalType": "string",
          "name": "_name",
          "type": "string"
        },
        {
          "internalType": "string",
          "name": "_surname",
          "type": "string"
        },
        {
          "internalType": "string",
          "name": "_vaccinationDate",
          "type": "string"
        },
        {
          "internalType": "string",
          "name": "_vaccineName",
          "type": "string"
        },
        {
          "internalType": "string",
          "name": "_vaccinationPlace",
          "type": "string"
        }
      ],
      "name": "createVaccinationRecord",
      "outputs": [
        {
          "internalType": "uint256",
          "name": "",
          "type": "uint256"
        }
      ],
      "payable": false,
      "stateMutability": "nonpayable",
      "type": "function"
    },
    {
      "constant": true,
      "inputs": [],
      "name": "getNumberOfVaccinations",
      "outputs": [
        {
          "internalType": "uint256",
          "name": "",
          "type": "uint256"
        }
      ],
      "payable": false,
      "stateMutability": "view",
      "type": "function"
    },
    {
      "constant": true,
      "inputs": [
        {
          "internalType": "uint256",
          "name": "id",
          "type": "uint256"
        }
      ],
      "name": "getVaccinationRecord",
      "outputs": [
        {
          "components": [
            {
              "internalType": "string",
              "name": "name",
              "type": "string"
            },
            {
              "internalType": "string",
              "name": "surname",
              "type": "string"
            },
            {
              "internalType": "string",
              "name": "vaccinationDate",
              "type": "string"
            },
            {
              "internalType": "string",
              "name": "vaccineName",
              "type": "string"
            },
            {
              "internalType": "string",
              "name": "vaccinationPlace",
              "type": "string"
            },
            {
              "internalType": "address",
              "name": "added_by",
              "type": "address"
            }
          ],
          "internalType": "struct covidVaccineRegister.VaccinationRecord",
          "name": "",
          "type": "tuple"
        }
      ],
      "payable": false,
      "stateMutability": "view",
      "type": "function"
    }
  ],
  "bytecode": "0x608060405234801561001057600080fd5b50611127806100206000396000f3fe608060405234801561001057600080fd5b506004361061004c5760003560e01c8063195812d0146100515780631ea6ddea146100815780637b05e1871461009f57806386c4953d146100d4575b600080fd5b61006b60048036036100669190810190610c8d565b610104565b6040516100789190611005565b60405180910390f35b6100896103bc565b6040516100969190611005565b60405180910390f35b6100b960048036036100b49190810190610d92565b6103c8565b6040516100cb96959493929190610f3f565b60405180910390f35b6100ee60048036036100e99190810190610d92565b610729565b6040516100fb9190610fe3565b60405180910390f35b600080600160006040518060c001604052808f8f8080601f016020809104026020016040519081016040528093929190818152602001838380828437600081840152601f19601f8201169050808301925050505050505081526020018d8d8080601f016020809104026020016040519081016040528093929190818152602001838380828437600081840152601f19601f8201169050808301925050505050505081526020018b8b8080601f016020809104026020016040519081016040528093929190818152602001838380828437600081840152601f19601f82011690508083019250505050505050815260200189898080601f016020809104026020016040519081016040528093929190818152602001838380828437600081840152601f19601f82011690508083019250505050505050815260200187878080601f016020809104026020016040519081016040528093929190818152602001838380828437600081840152601f19601f8201169050808301925050505050505081526020013373ffffffffffffffffffffffffffffffffffffffff168152509080600181540180825580915050906001820390600052602060002090600602016000909192909190915060008201518160000190805190602001906102e9929190610b3d565b506020820151816001019080519060200190610306929190610b3d565b506040820151816002019080519060200190610323929190610b3d565b506060820151816003019080519060200190610340929190610b3d565b50608082015181600401908051906020019061035d929190610b3d565b5060a08201518160050160006101000a81548173ffffffffffffffffffffffffffffffffffffffff021916908373ffffffffffffffffffffffffffffffffffffffff1602179055505050039050809150509a9950505050505050505050565b60008080549050905090565b600081815481106103d557fe5b9060005260206000209060060201600091509050806000018054600181600116156101000203166002900480601f0160208091040260200160405190810160405280929190818152602001828054600181600116156101000203166002900480156104815780601f1061045657610100808354040283529160200191610481565b820191906000526020600020905b81548152906001019060200180831161046457829003601f168201915b505050505090806001018054600181600116156101000203166002900480601f01602080910402602001604051908101604052809291908181526020018280546001816001161561010002031660029004801561051f5780601f106104f45761010080835404028352916020019161051f565b820191906000526020600020905b81548152906001019060200180831161050257829003601f168201915b505050505090806002018054600181600116156101000203166002900480601f0160208091040260200160405190810160405280929190818152602001828054600181600116156101000203166002900480156105bd5780601f10610592576101008083540402835291602001916105bd565b820191906000526020600020905b8154815290600101906020018083116105a057829003601f168201915b505050505090806003018054600181600116156101000203166002900480601f01602080910402602001604051908101604052809291908181526020018280546001816001161561010002031660029004801561065b5780601f106106305761010080835404028352916020019161065b565b820191906000526020600020905b81548152906001019060200180831161063e57829003601f168201915b505050505090806004018054600181600116156101000203166002900480601f0160208091040260200160405190810160405280929190818152602001828054600181600116156101000203166002900480156106f95780601f106106ce576101008083540402835291602001916106f9565b820191906000526020600020905b8154815290600101906020018083116106dc57829003601f168201915b5050505050908060050160009054906101000a900473ffffffffffffffffffffffffffffffffffffffff16905086565b610731610bbd565b6000808054905090506000831015801561074a57508083105b15610afd576000838154811061075c57fe5b90600052602060002090600602016040518060c0016040529081600082018054600181600116156101000203166002900480601f01602080910402602001604051908101604052809291908181526020018280546001816001161561010002031660029004801561080e5780601f106107e35761010080835404028352916020019161080e565b820191906000526020600020905b8154815290600101906020018083116107f157829003601f168201915b50505050508152602001600182018054600181600116156101000203166002900480601f0160208091040260200160405190810160405280929190818152602001828054600181600116156101000203166002900480156108b05780601f10610885576101008083540402835291602001916108b0565b820191906000526020600020905b81548152906001019060200180831161089357829003601f168201915b50505050508152602001600282018054600181600116156101000203166002900480601f0160208091040260200160405190810160405280929190818152602001828054600181600116156101000203166002900480156109525780601f1061092757610100808354040283529160200191610952565b820191906000526020600020905b81548152906001019060200180831161093557829003601f168201915b50505050508152602001600382018054600181600116156101000203166002900480601f0160208091040260200160405190810160405280929190818152602001828054600181600116156101000203166002900480156109f45780601f106109c9576101008083540402835291602001916109f4565b820191906000526020600020905b8154815290600101906020018083116109d757829003601f168201915b50505050508152602001600482018054600181600116156101000203166002900480601f016020809104026020016040519081016040528092919081815260200182805460018160011615610100020316600290048015610a965780601f10610a6b57610100808354040283529160200191610a96565b820191906000526020600020905b815481529060010190602001808311610a7957829003601f168201915b505050505081526020016005820160009054906101000a900473ffffffffffffffffffffffffffffffffffffffff1673ffffffffffffffffffffffffffffffffffffffff1673ffffffffffffffffffffffffffffffffffffffff1681525050915050610b38565b6040517f08c379a0000000000000000000000000000000000000000000000000000000008152600401610b2f90610fc3565b60405180910390fd5b919050565b828054600181600116156101000203166002900490600052602060002090601f016020900481019282601f10610b7e57805160ff1916838001178555610bac565b82800160010185558215610bac579182015b82811115610bab578251825591602001919060010190610b90565b5b509050610bb99190610c09565b5090565b6040518060c001604052806060815260200160608152602001606081526020016060815260200160608152602001600073ffffffffffffffffffffffffffffffffffffffff1681525090565b610c2b91905b80821115610c27576000816000905550600101610c0f565b5090565b90565b60008083601f840112610c4057600080fd5b8235905067ffffffffffffffff811115610c5957600080fd5b602083019150836001820283011115610c7157600080fd5b9250929050565b600081359050610c87816110cd565b92915050565b60008060008060008060008060008060a08b8d031215610cac57600080fd5b60008b013567ffffffffffffffff811115610cc657600080fd5b610cd28d828e01610c2e565b9a509a505060208b013567ffffffffffffffff811115610cf157600080fd5b610cfd8d828e01610c2e565b985098505060408b013567ffffffffffffffff811115610d1c57600080fd5b610d288d828e01610c2e565b965096505060608b013567ffffffffffffffff811115610d4757600080fd5b610d538d828e01610c2e565b945094505060808b013567ffffffffffffffff811115610d7257600080fd5b610d7e8d828e01610c2e565b92509250509295989b9194979a5092959850565b600060208284031215610da457600080fd5b6000610db284828501610c78565b91505092915050565b610dc48161104d565b82525050565b610dd38161104d565b82525050565b6000610de482611020565b610dee818561102b565b9350610dfe818560208601611089565b610e07816110bc565b840191505092915050565b6000610e1d82611020565b610e27818561103c565b9350610e37818560208601611089565b610e40816110bc565b840191505092915050565b6000610e58600d8361103c565b91507f696e76616c696420696e646578000000000000000000000000000000000000006000830152602082019050919050565b600060c0830160008301518482036000860152610ea88282610dd9565b91505060208301518482036020860152610ec28282610dd9565b91505060408301518482036040860152610edc8282610dd9565b91505060608301518482036060860152610ef68282610dd9565b91505060808301518482036080860152610f108282610dd9565b91505060a0830151610f2560a0860182610dbb565b508091505092915050565b610f398161107f565b82525050565b600060c0820190508181036000830152610f598189610e12565b90508181036020830152610f6d8188610e12565b90508181036040830152610f818187610e12565b90508181036060830152610f958186610e12565b90508181036080830152610fa98185610e12565b9050610fb860a0830184610dca565b979650505050505050565b60006020820190508181036000830152610fdc81610e4b565b9050919050565b60006020820190508181036000830152610ffd8184610e8b565b905092915050565b600060208201905061101a6000830184610f30565b92915050565b600081519050919050565b600082825260208201905092915050565b600082825260208201905092915050565b60006110588261105f565b9050919050565b600073ffffffffffffffffffffffffffffffffffffffff82169050919050565b6000819050919050565b60005b838110156110a757808201518184015260208101905061108c565b838111156110b6576000848401525b50505050565b6000601f19601f8301169050919050565b6110d68161107f565b81146110e157600080fd5b5056fea365627a7a72315820c6891d1b51ded7c728c3f950c4ce7bcac6a2243c64cfd9b8c04ab29b8a651de16c6578706572696d656e74616cf564736f6c63430005100040",
  "source": "pragma solidity ^0.5.0;\r\npragma experimental ABIEncoderV2;  // Enables us to pass an array as a return.\r\n\r\ncontract covidVaccineRegister {\r\n\r\n  // define the struct VaccineRecord\r\n  struct VaccinationRecord {\r\n    string name;\r\n    string surname;\r\n    string vaccinationDate;\r\n    string vaccineName;\r\n    string vaccinationPlace;\r\n    address added_by;\r\n  }\r\n\r\n  // define the array of users\r\n  VaccinationRecord[] public vaccinationRecords;\r\n\r\n\r\n  function createVaccinationRecord(string calldata _name, string calldata _surname, string calldata _vaccinationDate, string calldata _vaccineName, string calldata _vaccinationPlace) external returns(uint){\r\n    // get an instance of vaccination record using the input variables and push into the array of vaccine record, returns the id\r\n    uint id = vaccinationRecords.push(VaccinationRecord(_name, _surname,_vaccinationDate,_vaccineName,_vaccinationPlace, msg.sender)) - 1;\r\n    \r\n    // return the user id\r\n    return id;\r\n  }\r\n\r\n  function getNumberOfVaccinations() external view returns(uint) {\r\n    // return the length of the day1_users array\r\n    return vaccinationRecords.length;\r\n  }\r\nfunction getVaccinationRecord(uint id) external view returns(VaccinationRecord memory) {\r\n    // Access the array to get a specific id.\r\n    uint size = vaccinationRecords.length;\r\n    if(id>=0 && id<size){return vaccinationRecords[id];}\r\n    revert(\"invalid index\");\r\n  }\r\n\r\n\r\n}",
  "sourcePath": "C:/Users/Isco/Documents/Masters/Coursework/Programming Bootcamp/COVIDVS/contracts/cvt.sol",
  "compiler": {
    "name": "solc",
    "version": "0.5.16+commit.9c3226ce.Emscripten.clang"
  },
  "schemaVersion": "3.3.4",
  "updatedAt": "2021-05-21T10:49:05.660Z",
  "networkType": "ethereum",
  "devdoc": {
    "methods": {}
  },
  "userdoc": {
    "methods": {}
  }
}